:020000040800F2
:1000000050200020112E0008A52C0008A72C000865
:10001000A92C0008AB2C0008AD2C00080000000043
:10002000000000000000000000000000AF2C0008ED
:10003000B12C000800000000B32C0008B52C00080B
:100040002D2E0008312E0008352E0008392E00080C
:100050003D2E0008412E0008452E0008492E0008BC
:100060004D2E0008512E0008552E0008592E00086C
:100070005D2E0008612E0008652E0008692E00081C
:100080006D2E0008712E0008752E0008792E0008CC
:10009000C32C00087D2E0008812E0008C92C000802
:1000A000852E0008892E00088D2E0008912E00084C
:1000B000952E0008992E0008DF2C00089D2E0008C0
:1000C000A12E0008A52E0008A92E0008AD2E0008BC
:1000D000B12E0008B52E0008B92E0008BD2E00086C
:1000E000C12E0008C52E0008C92E0008CD2E00081C
:1000F000D12E0008D52E0008D92E0008DD2E0008CC
:10010000E12E0008E52E0008E92E0008ED2E00087B
:10011000F12E0008F52E0008F92E0008FD2E00082B
:10012000012F0008052F0008092F00080D2F0008D7
:1001300078B585B0044600260CB9012046E004F5E8
:100140008565687818B92E70204600F087FB03207B
:100150006870206800F0C9FC83B000F039F80EBC6C
:10016000206800F0BBFC2068002100F0C3FC04EB19
:10017000461028300121067086814170761C0021CE
:100180000F2EC170016141618161F0D30020002315
:1001900004EB401101F50A72537010708886D37019
:1001A000401C0F28136153619361F1D383B000F0B9
:1001B0000FF80EBC206800F09FFC002084F824009B
:1001C00001206870206800F06AFF002006B070BD52
:1001D000211D6846202200F093BF10B500F09EF864
:1001E00001D1022010BD00F08FF8206800F055FF0B
:1001F000206800F075FC8DE010B5044600F081F831
:10020000010444BF204600F05AF900F07AF8400596
:100210000CD500F072F84FF6FF3000F06AF8204677
:1002200000F04FFB0021204600F07DF800F069F857
:10023000400405D500F061F84BF6FF7000F059F866
:1002400000F05FF8800405D500F057F84DF6FF7018
:1002500000F04FF800F055F8C00417D52168B1F848
:1002600040204FF6FB700240A1F840204FF6F77097
:10027000B1F840200240A1F84020204600F03CFBAD
:1002800000F03BF84EF6FF7000F033F800F039F85C
:10029000000516D5206800F14002118841F00801E0
:1002A00011804FF2FF7193880B409380118841F0C9
:1002B0000401118000F0F5FEC0045CBF204600F090
:1002C0000DFB00F01EF8800508D500F016F84FF67B
:1002D000FF5000F00EF8204600F0EFFA00F011F8A1
:1002E000C00505D500F009F84FF6FF6000F001F8F1
:1002F00010BD0240A1F8442070472168B1F84420A5
:100300007047206800F0CDBE012184F828142046F3
:1003100000F0C5BB002084F8280410BD044694F802
:1003200028040128704710B5FFF7F8FF01D102201B
:1003300010BD012284F8282484F82410206800F0DD
:10034000A6FEE7E738B500F035F80D064CBF2830BB
:1003500000F50A7001F07F050570C909417002615E
:10036000C37094F82814012901D1022032BD00F095
:100370001BF800F0D1FB9EE010B500F01BF80A0658
:100380004CBF283000F50A7001F07F020270C909E5
:10039000417094F82814012901D1022010BD00F009
:1003A00003F800F0D3FCB5E7012284F828240146C5
:1003B00020687047044601F07F0004EB401070474E
:1003C00038B501F07F0400EB441505F50A7400F020
:1003D0001DF86270217013E001F00F0100EB411075
:1003E000D0F8440280B2704738B501F07F0400EBCA
:1003F000441505F1280400F009F82170012262700B
:100400002146006800F021FD002032BD01F07F018F
:100410006261A3610022E261704738B505460C466F
:100420002106204606D500F07F0105EB411202F1BE
:10043000280103E005EB441303F50A7101228A70D9
:1004400004F07F040C70C009487095F82804012856
:1004500001D1022032BD85F82824286800F0BAFDB9
:1004600024B9286805F22C4100F01EFE002085F812
:10047000280432BD38B5044608060A4606D502F0FF
:100480007F0004EB401303F1280003E004EB411567
:1004900005F50A700023837001F07F010170D20915
:1004A000427094F82814012901D1022032BDFFF7CF
:1004B0007BFF00F0B4FD002084F8280432BD2DE954
:1004C000F84F0021ADF80010ADF8001000F50A78E3
:1004D000064626E001880AEA0101018006F12404AB
:1004E0003068B0F85010227901EBC20100EB4100F6
:1004F00000F204400068A169C0F3090020620844CA
:10050000A0610021304600F0D1F9217849B1E069BD
:1005100038B92178306841F08001A0F84C100021F2
:100520002170306800F144010A88ADF800201204FF
:1005300040F13681BDF8004014F00F0440F68F778B
:1005400048F60F7A6BD1BDF80020D306C2D50388D8
:10055000ADF80030BDF80020130514D5898900F0EE
:1005600036F9B8F80420C3F30903C8F81C3006F2C2
:100570002C4100F0B6FD306801880F4007803046FE
:1005800000F086F9CDE7BDF800100A04C9D502884D
:10059000174007803068B0F8501000F018F9C3F326
:1005A0000903002BC8F81C300CD0B8F80420D8F888
:1005B000141000F096FDD8F81400D8F81C10084468
:1005C000C8F814000021304600F068F93068B0F82F
:1005D000501000EB4100D8F810103F2900F20C40F9
:1005E00009D34A0911F01F0F08BF521E920242F4AC
:1005F000004292B205E04A08C90748BF521C920661
:10060000120C02604BF68F7230680188114081F441
:10061000405141F4004141F08001018081E730F810
:100620002410ADF8001006EB4415BDF800100A04C4
:1006300048F68F7957D530F824100F4020F82470F1
:1006400005F50A77306897F800C0B97A61B9B0F853
:10065000501001EBCC0200F0B0F82FD0BA887969C5
:100660005B4600F03EFD29E030F82C104904B0F85C
:1006700050100DD511EBCC0200EB420303F2044302
:100680001968C1F3090BBBF1000F0BD0FA8805E024
:1006900011EBCC0200F091F804D03A895B467969FD
:1006A00000F01FFD3168387831F8202009EA020295
:1006B00042F4004242F0C00221F82020F969594476
:1006C000F961796901EB0B027A61BB6913B1396990
:1006D0008B4504D23978304600F0E0F803E03978F1
:1006E0003046FFF76DFEBDF80000010654D53068B6
:1006F00030F824100AEA010120F8241015F8281F08
:100700003368A87ACA0058B9B3F85010521800F0EC
:100710004AF82AD0AA886969306800F0D0FC24E041
:1007200033F821004106B3F8500005D5121800F047
:100730003AF80ED0EA8808E0121803EB420404F2FB
:100740000C4400F034F804D02A896969306800F05C
:10075000B6FC3168287831F8202009EA020242F418
:10076000404242F0800221F8202030682978B0F819
:10077000502002EBC10200EB420000F2044000688E
:10078000C0F30900E8616A6902446A613046AB69F6
:10079000002B02D100F08AF8C3E6FFF725FEC0E681
:1007A0000020BDE8F28F03EB420404F20444236806
:1007B000C3F30903002BEB61704700EB420303F224
:1007C0000C431968C1F3090BBBF1000F704798F88F
:1007D000002001EBC20100EB410101F20C410B686A
:1007E0007047F0B40246106895681318506803EB20
:1007F0005004C00721D54D441FE0F0BC02F10C00AD
:10080000704713F8017B05F8017B491EF9D1A0B1AF
:10081000B60813F8011B06F00306032E08BF13F8F1
:10082000016B01EB06214942801C294405D011F8D7
:10083000016B05F8016B401EF9D1A342DDD013F81E
:10084000016B16F0030104BF13F8011BC91C30092A
:100850000F28DAD113F8010B0F30D6E700688A4968
:10086000884200D0704780B58848016841F4000193
:1008700001600022006800F4000000900021009850
:10088000142000F09DFCBDE80240142000F0B5BC2F
:1008900000F22C41D0F85C0400F019BD00EB4112CD
:1008A000D0F85C04D2F83C2200F03CBD00EB4112D1
:1008B000D0F85C04D26B00F066BDD0F85C0400F0A8
:1008C000DBBD10B504460121D4F85C0400F0C5FD81
:1008D000D4F85C04BDE8104000F09FBD10B504469C
:1008E000D4F85C0400F0BCFDA06920B16848016840
:1008F00041F00601016010BDD0F85C0400F0B6BD07
:1009000010B5044663486049C0F85C44C4F820024E
:10091000016008214160022181600321C160002142
:100920008161C1610162FFF703FC28B14FF48D7151
:100930000FF26C1000F094FED4F82002182300226D
:10094000002100F08EFED4F82002582300228021DE
:1009500000F087FED4F82002C0230022812100F09D
:1009600080FED4F820024FF488730022012100F0A9
:1009700078FED4F820024FF480730022822100F028
:1009800070FE002010BD10B5D0F82002FFF725FC46
:10099000002418B102280CBF01240224204610BDF7
:1009A00038B51C461346D0F820022246FFF7CAFC91
:1009B000002518B102280CBF01250225284632BDAA
:1009C00010B5D0F82002FFF7D7FC002418B1022898
:1009D0000CBF01240224204610BD10B5D0F820021F
:1009E000FFF71BFD002418B102280CBF01240224CC
:1009F000204610BD10B5D0F82002FFF73BFD0024C3
:100A000018B102280CBF01240224204610BD81B079
:100A1000D0F8200201F07F0200EB421009064CBF23
:100A200090F82A0090F82A0201B0704710B5D0F86B
:100A30002002FFF778FC002418B102280CBF012423
:100A40000224204610BD10B5D0F82002FFF7CCFCE0
:100A5000002418B102280CBF01240224204610BD36
:100A600010B5D0F82002FFF7ABFC002418B1022823
:100A70000CBF01240224204610BDD0F82002FFF74D
:100A8000ABBC054870470000005C00401C100240F1
:100A900010ED00E058110020DC170020704770476F
:100AA000433A5C55736572735C31373635375C4455
:100AB00065736B746F705C42535044656D6F5C423C
:100AC00053504F70656E446F6D655C5372635C7517
:100AD0007362645F636F6E662E6300000EB417E08E
:100AE000B0F8401041F43F41E0E2B0F8402044F259
:100AF000FF21DFE2002070470EB4012120F8401FE3
:100B00000021018081800182018841F43F41018000
:100B1000002003B0704700002DE9F8430A4648F66C
:100B20008F11D378032B16D8DFE803F0020F070AE2
:100B300000F007F941F400710BE000F002F908E061
:100B400000F0FFF841F4C06103E000F0FAF841F46E
:100B5000806120F823101178884630F8286048F624
:100B60008F74264048F280033143194320F828103F
:100B70004BF68F78917A157800294CF2800648F66A
:100B8000BF7748F2C00C55D1918849084FEA410916
:100B900051780029B0F8501001EBC50500EB450174
:100BA00016D001F58061C1F80090117830F821501D
:100BB0006E0606D530F821502C404CEA040420F88B
:100BC0002140117830F82120174087F020077BE082
:100BD00001F58161C1F80090B0F85010177801EB71
:100BE000C70100EB410E11693F290EF20C4E09D3EB
:100BF0004F0911F01F0F08BF7F1EBF0247F40047C7
:100C0000BFB205E04F08C90748BF7F1CBF063F0CB5
:100C1000CEF80070117830F821707D0405D530F8D9
:100C200021703C40344320F8214000F084F882F4E5
:100C300040526EE030F82510214041F4014141F06E
:100C4000800120F8251000F070F8D58800EB4101F4
:100C500001F580616D086D000D6000F066F800EB35
:100C6000410101F58165118949084900296092F81F
:100C700000E0517851BB30F82E50690405D530F8AA
:100C80002E1021400E4320F82E60117830F821609C
:100C9000750606D530F8216026404CEA060620F895
:100CA0002160117830F8216034404CEA040400F0EF
:100CB00036F808EA040484F440541C4320F8214028
:100CC000117830F8212017403B4323E030F82E10F4
:100CD0004D0405D530F82E102140314320F82E1058
:100CE000117830F821506D0606D530F82150254096
:100CF0004CEA050520F82150117830F821502C409D
:100D0000344300F00CF827401F4320F8217000F016
:100D100012F8134320F821300020BDE8F28320F8B8
:100D20002140117830F821407047B0F85010157804
:100D300001EBC5017047117830F8212008EA020262
:100D40007047137830F82340214070472DE9F04177
:100D5000024691F800E048788B7A4BF68F764CF299
:100D6000800848F2800448F6BF7548F2C00C48F687
:100D70008F77BBB9002832F82E0009D0430628D55A
:100D800032F82E0007404CEA070022F82E0020E03F
:100D9000430439D532F82E00074048EA070022F80C
:100DA0002E0031E0002832F82E001AD1430406D577
:100DB00032F82E00384048EA000022F82E0000F0F9
:100DC00033F84CEA070300F029F81E40264322F8C6
:100DD0002060087832F820100D402C4322F8204083
:100DE00019E0430406D532F82E00384048EA0000E6
:100DF00022F82E0000F018F848EA070300F00EF879
:100E00001D40254322F82050087832F820100E406B
:100E1000264322F820600020BDE8F08122F820302F
:100E2000087832F820307047087832F820305B06B6
:100E300006D532F820303B404CEA030322F820303C
:100E4000087832F820301F4070472DE9FC410D46EC
:100E500080466A78A8692969012A074648F280060F
:100E600040D181423ABF0F46C01B0020A861A87A3A
:100E700028B9AA8800F09FF800F0A1F829E02878A6
:100E8000C10038F820004206B8F8500003D500F041
:100E90008BF82A8902E000F087F8EA8800F08BF8E6
:100EA000687848F68F7140B9287838F820201140CA
:100EB00041F4004141F0C00109E0012809D128783E
:100EC00038F82020114041F4404141F0800128F8D9
:100ED0002010297838F8212048F6BF70024082F0AF
:100EE000300255E081423ABF0F46C01B0020A86186
:100EF0007B08A97A4FEA571C07F0010039B9B8F806
:100F00005020297802EBC10208EB42041EE0BAB976
:100F100000F044F808EB41013F2F01F2044109D3EE
:100F2000624617F01F0F08BF521E920242F40042A1
:100F300092B204E01A4600B1521C9206120C0A60EA
:100F40006978C9B900F02AF808EB41043F2F04F290
:100F50000C440BD317F01F0F08BFACF1010C4FEA84
:100F60008C2040F4004080B2206009E000B15B1C9E
:100F70009B061B0C236003E0012901D100F01FF840
:100F80004BF68F70297838F82120024082F44052C5
:100F9000164328F821600020BDE8F681B8F850100B
:100FA0002A7801EBC2017047091808EB410404F2EA
:100FB0000444276070476969BBB240467FE0B8F8D7
:100FC0005000297800EBC10008EB400404F204440F
:100FD0002760704718B50A7848F2800352B9018833
:100FE0004BF6BF72114081F4805181F010010B4328
:100FF000038012E0497830F82240002905D048F6F5
:10100000BF710C4084F0100404E04BF68F710C406B
:1010100084F48054234320F82230002012BD70B5A0
:101020000C784A7848F2800348F68F75AAB130F8F8
:101030002460720608D530F82420154045F4004598
:1010400045F0C00520F824500A7830F8224048F6D0
:10105000BF710C4084F0300414E030F824205604B2
:1010600008D530F82420154045F4404545F080056A
:1010700020F824500A7830F822404BF68F710C404B
:1010800084F44054234320F82230002070BD11B96D
:101090008021A0F84C1000207047002070470020ED
:1010A0007047B0F84400704700207047A0F8401027
:1010B000002070470A40A0F840200020704710B57B
:1010C00000EB42005B1C00F580605B1007E00A78D3
:1010D0004C7842EA0422891C20F8042B5B1EF6D1CE
:1010E00010BD00EB42005B1C00F580605B1004E06B
:1010F00050F8042B21F8022B5B1EF9D17047000039
:10110000103A07D330B4B1E83810103AA0E83810DC
:10111000F9D230BC530724BFB1E80810A0E808108A
:1011200044BF51F8043B40F8043BD20724BF31F8D8
:10113000022B20F8022B44BF0B7803707047121F5C
:1011400017D35B0009D151F8043B20F8023B1B0C7C
:10115000121F20F8023BF6D20BE051F8043B00F8D6
:10116000013B1B0A20F8023B1B0C121F00F8013B3D
:10117000F3D238BF121D521E24BF11F8013B00F8F4
:10118000013BF8D8704700000901002881B006D55E
:101190002F4A00F00F00104400F8041C01E02D4A13
:1011A000115401B070472C4A13684FF6FF0100023A
:1011B0000B4000F4E0601843284908431060704772
:1011C00038B5254B1C68C4F30223C3F10704052C72
:1011D00028BF04241D1D072D34BF0023DB1E01255D
:1011E00005FA04F4641E2140994005FA03F35B1EDE
:1011F0001A401143BDE83440C6E7012200F01F0148
:10120000174BFFE78A40400943F82020704710B58C
:10121000401EB0F1807F01D3012010BD114C6060F1
:101220000F214FF0FF30FFF7AFFF0022A260072031
:101230002060002010BD04280A4904D1086840F04D
:101240000400086070470A6822F004020A607047D0
:1012500018ED00E000E400E00CED00E00000FA050D
:1012600000E100E010E000E000F000B8704738B5A1
:1012700008B9022032BD00F5FE74A3690BB1002548
:10128000A56101B16161012121700270FFF738FB96
:10129000002032BD0246002011B1C2F8141270477E
:1012A0000220704780B5FFF76EFB002002BD10B52D
:1012B000D0F8142202241AB11268904700B9002411
:1012C000204610BD80B5D0F814225368E0E038B550
:1012D000044604F50275284600F06FFB04F5FA7029
:1012E00001210160418B4160017D11F01F0003D09D
:1012F00002280BD005D30EE02946204600F0CAF99B
:101300000EE02946204600F05DFA09E02946204615
:1013100000F074FA04E001F080012046FFF75DFB65
:10132000002032BD38B5044610460A0004F5FA73B1
:101330001FD11968032924D104F586714A680D6804
:10134000AA420AD2AD1A0D60954238BF2A4601461C
:1013500092B2204600F08DFB13E0186A016921B1BA
:10136000187A032804BF20468847204600F089FBEE
:1013700007E0186A826922B1187A032804BF204660
:101380009047002032BD38B5044610460A0004F5E7
:10139000FA7538D1296802292FD1E269216A914270
:1013A00007D2521AE261014692B2204600F04FFB8A
:1013B00011E0A269B2FBF1F001FB102090B98A4262
:1013C00010D3686882420DD200220021204600F02E
:1013D0003EFB002068600023002200212046FFF72A
:1013E0003FFB0AE0286AC16821B1287A032804BFBC
:1013F00020468847204600F04BFB287B01280AD175
:101400000021297307E0286A426922B1287A03285B
:1014100004BF20469047002032BD10B5044640234B
:1014200000220021FFF7BCFA4020C4F8100140233D
:10143000002280212046FFF7B3FA4020206204F505
:10144000FE7201201070D06928B1926961685368FA
:10145000C9B220469847002010BD01740020704793
:1014600000F5FE7001784170042102E000F5FE7085
:10147000417801700020704780B500F5FE710A7850
:10148000032A03D18969C96901B18847002002BDD7
:101490009847002002BD000010B500F001FB00F0ED
:1014A0003AF800F00FFB00F0C3FB00F0DDFB002278
:1014B00000211720FFF784FE1720FFF79EFE002271
:1014C00000211E20FFF77CFE1E20FFF796FE5C48E1
:1014D0005C4C00F03EFC00F04CFBE078012801BFC2
:1014E000A178012900202071E078A17800282079D6
:1014F00005D10129FDD10128FBD100F05AFBE1788B
:10150000012904BFA0780028E7D121790129EBD176
:1015100000F051FBE1E700B5002195B001200D91ED
:101520000B90022112914FF480300C900122139005
:101530004FF480110F9214910BA800F0B3FD00B18D
:10154000FEE70F2102200091019000214FF48060FE
:101550000291039004916846012100F031FF00B12F
:10156000FEE7102005904FF480010A9105A800F0D5
:10157000F5FF00B1FEE700F0D0FF4FF47A71B0FB49
:10158000F1F0FFF744FE0420FFF755FE0022002192
:101590004FF0FF30FFF714FE15B000BD284900687A
:1015A0000A68824200D0704738B5264CE08840F681
:1015B000AD51884203DB012100202171E0806422CB
:1015C000E08890FBF2F2642101FB120018B900F0F0
:1015D0001BFB00F014FB1C4D00F03DF8401E804149
:1015E000C00FA07000F032F8401E8041C00FE070C4
:1015F000E088401CE08031BD38B5B0F5007F114C6B
:10160000114D0AD1012001F01DF800F024F808B9AD
:10161000207031BD012020700CE0B0F5807F0DD12D
:10162000012001F00FF800F011F808B9607031BD29
:101630000120607000F0C3FA0020207131BD00006D
:10164000FC1B00203C1C0020000801404FF480716E
:10165000284601F0D2B84FF40071284601F0CDB809
:10166000FEE710B50C0605D501F07F0100EB411037
:10167000283003E000EB411101F50A7012B98272C3
:10168000838004E0C38001211B0C81720381002050
:1016900010BD0000F8B50D4604466878092804F529
:1016A000FE7646D8DFE800F06479457445090545C3
:1016B0005322204600F006F97FE0A988002904BFE4
:1016C000E888002835D13078AF78032807F07F0705
:1016D0002FD0B77039462046FFF7A8F900F08BF8F5
:1016E000002F14BF02200120307066E0344F68885C
:1016F0003870397802291CDA3278022A08461BD061
:10170000032A16D139B902203070002060602046CB
:10171000FFF7D8FD4FE0616888424CD0C9B220463F
:10172000FFF7D0FD397861602046FFF7C0FD022841
:1017300041D100F03FF940E000293CD06060032037
:1017400030702046FFF7B3FD0228F2D033E0E8887E
:101750000128EED13178022904D00329E9D10122F0
:10176000211D11E00020A060012204F108010BE01E
:101770003078801E0128DCD8B068012100B1032137
:10178000E160022204F10C01204600F058F914E057
:101790006888012811D1012107E03078801E0128D6
:1017A000C7D86888012808D10021B269B1602946EC
:1017B00093682046984700F01EF80020F2BD000014
:1017C000491C002038B5044604F5FE720D46107819
:1017D00003280CD12979022909DA926993682946EC
:1017E00020469847E88820B900F005F801E000F0AD
:1017F000E1F8002032BD204600F043B970B50D4637
:1018000004462878297900F06000202804F5FE7647
:1018100002D100F051F84DE06A78002A01F07F0013
:1018200026D0012A0FD0032A44D13078022810D0C4
:1018300003283DD1688828B900291EBF8029204689
:10184000FFF7CBF80FE03278022A02D0032A04D047
:101850002EE000292ED0802911E06A8852BB20B1E9
:101860002046FFF7C7F800F027F8FFF7C4FF21E094
:101870003278022A02D0032A06D019E0002819D0B3
:101880002046FFF7AAF815E004EB00100A064CBF4B
:1018900000F1140500F582752046FFF7B8F800B195
:1018A0000120286002222946204600F0C8F801E005
:1018B00000F080F8002070BDB26993682946204688
:1018C0001847000038B50D4604466888010A01290A
:1018D00004F5047208D0022920D003292BD0062950
:1018E00055D007295AD062E01268207C13686946F7
:1018F0009847BDF8001000291CBFE98800290CD0CA
:10190000BDF800208A4288BF0A46ADF80020014693
:10191000BDF80020204600F092F831BD207C5168CF
:101920000028684604D1896A884702214170E0E7AF
:10193000C96A8847F9E7C0B2052838D8DFE800F05F
:1019400003090F151B211268207C536869469847CC
:10195000CFE71268207C936869469847C9E7126808
:10196000207CD36869469847C3E71268207C1369D6
:1019700069469847BDE71268207C536969469847D5
:10198000B7E71268207C936969469847B1E7207CE5
:1019900068B951684A6B68469047AAE7207C30B91D
:1019A00051680A6B6846904707224270A1E700F031
:1019B00001F831BD2946204613E00A7802704A78C2
:1019C0004270CB788A7802EB032242804B790A7905
:1019D00002EB032282808A79C97902EB0122C2805C
:1019E000704710B504468021FEF7F7FF2046BDE89A
:1019F00010400021FEF7F1BF002800D1704730B53C
:101A00000346002400E0641C13F8015B002DFAD1AA
:101A10002406E40DA41C1480022312880A700322F9
:101A20004A7008E010F8012BDBB2CA545B1CDBB231
:101A30000022CA545B1C0278002AF3D130BD80B565
:101A400013460222C0F8F4218361C36101E080B52E
:101A500013460A460021FEF7F6FF002002BD80B5BE
:101A600013460322C0F8F42100F58472136053601A
:101A700001E080B513460A460021FEF7F1FF002081
:101A800002BD80B50421C0F8F41100230022E1E773
:101A900080B50521C0F8F41100230022ECE7000016
:101AA00080B50748016841F0100101600320FFF78D
:101AB0007AFB002000F0DAFE00F0ECFE002002BD10
:101AC0000020024030B55348534D544C85B0016856
:101AD00041F010010160026802F0100204920499C2
:101AE000016841F020010160026802F020020492C6
:101AF0000499016841F008010160026802F00802DF
:101B0000049200220499016841F0040101604FF43D
:101B10000251006800F0040004900498284600F088
:101B200072FE00224FF44241204600F06CFE4FF45A
:101B3000025000F017F8284600F094FD4FF44240A0
:101B400000F010F8204600F08DFD4FF4407000903A
:101B500001203349019102906946324800F082FD2C
:101B600005B030BD0090012102200191039069462B
:101B7000704710B5294C01224FF40041204600F077
:101B800042FE00F022F800228021234800F03BFEB4
:101B90000A2000F057FD24480178012901BF234A9B
:101BA0001078012800F007F8BDE81040642000F02C
:101BB00049BD10B50FE010B5184C01220DE010B56D
:101BC000164C00F002F801220DE001224FF4804192
:101BD000204600F018BE114C00224FF480412046F0
:101BE00000F011FE00224FF40041204600F00BFEF1
:101BF000BDE8104000228021074800F004BE4FF4E9
:101C00000051054800F005BE4FF40071034800F094
:101C100000BE00001810024000100140000C0140FE
:101C200000003110000801403E1C00203F1C002035
:101C300010B5094C094900222046FFF718FB084956
:101C40002046FFF727FB0749204600F043FF2046C8
:101C5000BDE81040FFF726BBB81500202401002086
:101C60001000002014010020224838B5224C0FF249
:101C70009005206086B02F2060600020A06040F2B8
:101C8000E730E060002020618020A061204600F065
:101C900053F818B149212846FFF7E2FC4FF4805071
:101CA000029002A9204600F015F918B14F212846EC
:101CB000FFF7D6FC0020009001906946204600F016
:101CC00031FF18B156212846FFF7CAFC07B030BDD6
:101CD00081B000680749884209D10848016841F08D
:101CE00004010160006800F004000090009801B059
:101CF0007047000000080040FC1B00201C10024040
:101D0000433A5C55736572735C31373635375C44E2
:101D100065736B746F705C42535044656D6F5C42C9
:101D200053504F70656E446F6D655C5372635C74A5
:101D3000696D2E630000000038B5040001D1012058
:101D400032BD00F01FF818B900F018F8FFF7C0FF17
:101D50000AE00068C16841F00101C160026842F018
:101D6000010202600020704702206870211D206877
:101D700000F01BF901206870002032BD002129709D
:101D80002046704704F13C056878704710B504465A
:101D9000206801698A0715D5C1688A0712D56FF0D6
:101DA0000202026101212177806910F0030F2046B1
:101DB00002D000F0DCFE03E000F0DAFE00F087F86D
:101DC00000202077206801694A0715D5C1684A07B5
:101DD00012D56FF00402026102212177806910F4AC
:101DE000407F204602D000F0C2FE03E000F0C0FEBB
:101DF00000F06DF800202077206801690A0715D5EA
:101E0000C1680A0712D56FF0080202610421217728
:101E1000C06910F0030F204602D000F0A8FE03E0D6
:101E200000F0A6FE00F053F800202077206801693A
:101E3000CA0615D5C168CA0612D56FF01002026134
:101E400008212177C06910F4407F204602D000F0BD
:101E50008EFE03E000F08CFE00F039F800202077C1
:101E600020680169CA0708D5C168CA0705D56FF09F
:101E7000010202612046FFF791FB206801690A0612
:101E800008D5C1680A0605D56FF0800202612046B8
:101E900000F06FFE206801694A0608D5C1684A064D
:101EA00005D56FF040020261204600F063FE206815
:101EB00001698A060AD5C1688A0607D56FF0200233
:101EC00002612046BDE8104000F055BE10BD20461E
:101ED00000F052BE38B500F05DF801D1022032BDED
:101EE00001222270022060702A68DFF834019368B2
:101EF000034093600868002837D0102837D0202886
:101F000037D0302837D040282BD050281ED060281A
:101F100020D070280BD0B0F5805F03D0B0F5005F03
:101F20000CD02CE028688168C908C9000CE000F0DA
:101F300028F82868816841F0770105E000F021F871
:101F40002868816841F48041816018E000F01EF843
:101F5000502111E0CA684968286800F07CF86021C7
:101F60000AE000F013F8402106E0002104E010210F
:101F700002E0202100E03021286800F07EF80FE028
:101F80000000CB684A68896828687EE0CA684968AA
:101F9000286851E0054605F13C0420780128704787
:101FA000012060700020207032BDF0B5DFF874C0F1
:101FB0001D4F03681D4C1E4D1E4E604518BFB84294
:101FC00008D0B0F1804F18BFB04203D0A84218BF6C
:101FD000A0420DD14A6823F070031343604518BF37
:101FE000B84207D0B0F1804F1CBFB042A84201D028
:101FF000A04203D1CA6823F4407313434A6923F013
:1020000080031343036060458A68C2620A68826283
:1020100012BFB8420969016301214161F0BD0000AE
:102020008800FFFF002C014000340140000C0040FC
:10203000000800400004004010B5036A046A640808
:102040006400046223F00A03846924F0F00444EA83
:102050000214846123E010B5036A23F010030362C5
:102060008369046A23F4704343EA023324F0A00432
:10207000836144EA0114046210BD826822F0700298
:10208000114341F007018160704710B5846824F462
:102090007F442143114341EA0321816010BD19436C
:1020A000016210BD2DE9F8430646DFF8745430781C
:1020B000C1074AD5686800F00C00042807D068689A
:1020C00000F00C0008280BD16868C10308D5296806
:1020D00088033AD57068002840F0C080012069E18B
:1020E0007068B0F5803F0FD038B9296821F480318D
:1020F0002960286820F4802009E0B0F5A02F296825
:1021000007D141F480212960286840F4803028609C
:1021100006E021F4803129602A6822F480222A60B6
:10212000706868B100F02AFD04462968880300F150
:10213000958000F023FD001B6528F6D3032039E1CC
:1021400000F01CFD04462868810340F1878000F000
:1021500015FD001B6528F6D3F0E700F00FFD001B0E
:10216000022840F2AA80E9E7306970B101213960A4
:1021700000F004FD04462868810700F1DC8000F0CF
:10218000FDFC001B0228F6D9D8E7386000F0F6FC09
:1021900004462868810765D500F0F0FC001B022882
:1021A000F7D9CBE7086000F0E9FC0446686A8107CC
:1021B00077D500F0E3FC001B0228F7D9BEE708B989
:1021C000286A09E00528286A06D140F00400286240
:1021D000286A40F0010005E0400840002862286AB3
:1021E00020F00400286241F28938F06868B100F0FC
:1021F000C5FC8146286A810700F1AA8000F0BEFC78
:10220000A0EB09004045F5D398E700F0B7FC814604
:10221000286A810740F19C8000F0B0FCA0EB090027
:102220004045F5D38AE700F0A9FC001B022840F2E4
:10223000A28083E700F0A2FC001B022840F2B580D8
:102240007CE700F0B9F804462868810140F1B180CC
:1022500000F094FC001B0228F6D96FE73078DFF815
:10226000CC7281071BD5686810F00C0F09D0686824
:1022700000F00C0008287FF477AF6868C1033FF5D1
:1022800073AF2968880703D5306901287FF426AF2A
:102290002968706921F0F80141EAC00129603178AC
:1022A00008071DD5B069DFF8881200283FF47AAF1F
:1022B00001220A6000F062FC0446686A81077FF52B
:1022C0004CAFDFF860120868C0084FF47A72B0FBB8
:1022D000F2F2009200BF0098411E00280091F9D14F
:1022E0003078410739D5E8690024C10009D4E8698C
:1022F00040F08050E8610124E86900F080500090CF
:102300000098DFF83082D8F80010C8051BD4D8F840
:10231000000040F48070C8F8000000F02FFC8146F7
:10232000D8F80010C8050ED400F028FCA0EB090076
:102330006528F5D302E72868716920F0F80040EAC3
:10234000C1002860ABE7F06801287FF438AF3FE7B1
:102350001CB1E86920F08050E861F06948B3696811
:1023600001F00C0108293FF4B9AE02287FF469AFEF
:1023700000F022F80446286881013FF554AF306A26
:10238000B0F5803F05D16968B06821F400310143A0
:1023900069606968306A21F474110143706A01430D
:1023A0006960012000F009F80446286881017FF582
:1023B00041AF0020BDE8F2830020386600F0DEBBAC
:1023C0002DE9F8435C4F05463868894600F0070060
:1023D000484502D200F07AF86CD12978504C880731
:1023E00005D56168A86821F0F00101436160287893
:1023F000C10757D56868012802D121688A0303E024
:10240000022803D121688A0103D453E0226891078E
:1024100050D56168890840EA8100606041F28938DE
:1024200000F0ACFB0646686801280BD1606800F03C
:102430000C00042836D000F0A1FB801B4045F5D3EA
:1024400003202DE0022837D1606800F00C00082836
:1024500028D000F093FB801B4045F5D3F0E72878A7
:10246000410705D56168E86821F4E06101436160D6
:102470002878010706D56068296920F4605040EA91
:10248000C100606000F02CF862682C49C2F30312AE
:10249000895C244AC8401060002000F0E7F9002061
:1024A000BDE8F283386800F007008145D7D200F01C
:1024B0000DF8D4D00120F3E7606810F00C0FF1D0D4
:1024C00000F05CFB801B4045F6D3B9E73968C908CA
:1024D00049EAC1013960386800F007004845704793
:1024E00017490A6802F00C00082814D10FF25803AB
:1024F000C2F38340D203185C0AD509680FF258036F
:10250000094AC1F34041595CB2FBF1F148437047BD
:102510000C494843704704487047024800687047B8
:10252000001002400000002000127A000000424229
:10253000800442420070004000200240942C0008B9
:102540000410024000093D000203040506070809C3
:102550000A0B0C0D0E0F1010010200002DE9FC41BA
:102560000646354D3078C10750D5A8690024C10012
:1025700009D4A86940F08050A8610124A86900F03E
:102580008050009000982D4F3968C80517D43868DE
:1025900040F48070386000F0F1FA80463968C80570
:1025A0000DD400F0EBFAA0EB08006528F6D3032069
:1025B0003FE000F0E3FAC01B404519D3F7E7E869B4
:1025C00010F440701EBF716801F44071884212D04F
:1025D0001B49E86901220A6020F4407000220A6069
:1025E000E861C00707D500F0C9FA074641F289380B
:1025F000E8698107DDD5E969706821F4407101431C
:10260000E9611CB1A86920F08050A8613178880781
:1026100005D52A68B06822F4404202432A60307827
:10262000C10605D52968706921F48001014329603C
:102630000020BDE8F6810000041002400070004058
:102640004004424231B500F099FA009D15F1010FA6
:10265000044618BF6D1C00F091FA001BA842FAD383
:1026600031BD00002DE9F84F83460F46002080461B
:102670006E496F4A6F4B4FF00F094FF0010A3C68EB
:102680000AFA08F606EA040EB64540F0AE807C6809
:102690003CB3012C1AD0022C1DD0032C2ED0112CAF
:1026A00016D0122C1AD0644DAC421CBF634DAC4204
:1026B00017D0634DAC421CBF624DAC4211D0624D8D
:1026C000AC421CBF614DAC420BD018E0F86816E07C
:1026D000F868001D13E0F868083010E0F8680C3066
:1026E0000DE0B86808B9042009E0012819BF0820E6
:1026F000CBF814600820CBF8106000E00020BEF595
:10270000807F03D2DC464FEA880404E0A8F1080485
:102710000BF1040CA400DCF8005009FA04F6B543F0
:1027200000FA04F42C43CCF800407C68E4005CD54B
:102730001C6844F001041C604FEA980C1D6805F009
:1027400001050095009C52F82C604FEA880404F0C3
:102750000C0409FA04F526EA05053D4EB34508BF09
:10276000002618D03B4EB34508BF012613D03A4E81
:10277000B34508BF02260ED0384EB34508BF032626
:1027800009D0374EB34508BF042604D0354EB345B3
:102790000CBF0526062606FA04F42C4342F82C400A
:1027A0006FEA0E067C68E50304D50D684EEA050560
:1027B0000D6002E00C6834400C607C68A5034C6836
:1027C0004CBF4EEA040434404C607C68E5028C68DF
:1027D0004CBF4EEA040434408C607C68A502CC688F
:1027E0004CBF4EEA04043440CC6008F10108B8F153
:1027F0000F0F7FF644AFBDE8F18F8068084018BF27
:102800000120C0B2704781B002B90904016101B072
:102810007047C2685140C1607047134A1368034251
:102820001CBF1060FEF7E8BE7047000000040140C6
:1028300008000140181002400000111000001210A2
:1028400000002110000022100000311000003210A2
:1028500000080140000C014000100140001401403C
:1028600000180140001C01401404014010B5084943
:102870000A6804464FF47A70B2FBF0F0FEF7C7FC2A
:10288000002221464FF0FF30FEF79AFC002010BDD9
:102890000000002080B52048016841F0010101607E
:1028A000006800F00100009000980320FEF77BFC18
:1028B000002200216FF00B00FEF782FC00220021B5
:1028C0006FF00A00FEF77CFC002200216FF0090087
:1028D000FEF776FC002200216FF00400FEF770FC8A
:1028E000002200216FF00300FEF76AFC00220021A5
:1028F0006FF00100FEF764FC002200214FF0FF3072
:10290000FEF75EFC0548016821F0E06101600268A5
:1029100042F08062026001BD1810024004000140D4
:102920007CB506460025307C30B94FF4007300F0CA
:1029300031F84FF4007303E0402300F02BF84023FC
:10294000022201213046FEF72BF8082303228221C0
:102950003046FEF725F84FF40770FEF792F80400B2
:1029600006F5067008BF0125046011D040680168B3
:10297000884704F50170056145610268307C0028D4
:102980000CBF4FF40073402301213046FEF768F876
:10299000284676BD022281213046FEF701B810B5E7
:1029A00004468121FEF70CF801212046FEF708F8C5
:1029B00082212046FEF704F804F50674206838B139
:1029C0006168486880472068FEF768F8002020604A
:1029D000002010BDF8B50D46044604F506732978AD
:1029E0001E6811F060001ED0202824D1EA88A2B110
:1029F0006878090606D55B689F683146B847EA885B
:102A0000314615E006F500710870E88848703146D7
:102A1000EA882046FFF723F80DE05B6868789C6839
:102A20002946A04707E068780A2804D101222449F2
:102A30002046FFF704F80020F2BDD0F8180220B1BC
:102A40000021C0F81412002070470220704770B5B2
:102A500000F50674256805F50176FEF70EF8B060FE
:102A6000206838B162683068D36805F5037198470B
:102A7000002070BD022070BD10B500F506704368DF
:102A80000168002B1EBF01F500742078FF2804D0D8
:102A900062789B689847FF202070002010BD43217A
:102AA000018008487047432101800748704743214F
:102AB0000180064870470A210180054870470000E0
:102AC000481C00208C00002048000020D00000207E
:102AD000040000200246022011B1C2F81C1200209E
:102AE0007047D0F8180200F5027001608260002083
:102AF0007047D0F81802C0F804120020704780B563
:102B0000D0F8181261B1D1F80422017C00290CBF61
:102B10004FF4007340230121FDF7A2FF002002BD06
:102B2000022002BD30B500F13C031A78012A01D120
:102B3000022030BD01241C7002225A7002685468C1
:102B400024F070045460046865680A681543656081
:102B50000268946824F0800494600268946848686D
:102B600004439460012058700020187030BD7047F5
:102B70007047704770477047704700000148006811
:102B8000704700BF441C0020122008800F48704787
:102B9000042008800E48704710B500F013F80FF2BB
:102BA000500004E010B500F00DF80FF25C00214673
:102BB000FEF722FF204610BD10B500F003F80FF21B
:102BC0005C00F4E70A46034C704700004001002017
:102BD00054010020FC19002010B5FFF7F3FF0FF29D
:102BE0004C00E4E710B5FFF7EDFF0FF24C00DEE715
:102BF00053544D3332205669727475616C20436FA3
:102C00006D506F727400000053544D6963726F65AC
:102C10006C656374726F6E696373000030303030BE
:102C20003030303030303141000000004344432028
:102C3000436F6E666967000043444320496E7465C4
:102C400072666163650000000E49086840F001008B
:102C500008604A680C4802404A600B680B48034011
:102C60000B60086820F4802008604FF41F004A6859
:102C700022F4FE024A6088604FF000600449086058
:102C800070470000001002400000FFF8FFFFF6FE52
:102C900008ED00E000000000000000000102030455
:102CA000060708097047FEE7FEE7FEE7FEE7704704
:102CB0007047704780B500F019F8BDE80140FEF795
:102CC000D3BA0848FDF798BA80B54FF48070FFF783
:102CD000A4FDBDE802404FF40070FFF79EBD02481E
:102CE000FFF754B858110020FC1B0020024801686F
:102CF000491C0160704700BF441C002038B50E4CD1
:102D00000E4D002205F500612046FFF7EAFE294638
:102D10002046FFF7EEFE002032BD00207047002065
:102D2000704710B50146044C2046FFF7E2FE2046EE
:102D3000FFF7E5FE002010BDB81500205801002067
:102D400019E050F8042BD30744BFA9F101039A18E6
:102D5000091F0023042942F8043BF9D25FEA817C71
:102D6000134604D54FF0000CA2F800C09B1CC90705
:102D700044BF0021197050F8041B0029E1D17047AD
:102D800010B5074979441831064C7C44163404E0E8
:102D90000A68081D114488470146A142F8D110BDB8
:102DA000080000002400000099FFFFFFF41A000053
:102DB00058010020000000002BDAFFFF5401000042
:102DC000A00100000000002000F00DF8002801D054
:102DD000FFF7D6FFAFF300800020AFF30080FEF7CF
:102DE0005BFB00F002F80120704700F001B8000022
:102DF0000746384600F002F8FBE7000080B5AFF365
:102E00000080024A11001820ABBEFBE7260002003A
:102E10000148804701480047492C0008212E00083E
:102E2000AFF30080AFF30080FFF7CEFFFFF7FEBFE8
:102E3000FFF7FEBFFFF7FEBFFFF7FEBFFFF7FEBFC6
:102E4000FFF7FEBFFFF7FEBFFFF7FEBFFFF7FEBFB6
:102E5000FFF7FEBFFFF7FEBFFFF7FEBFFFF7FEBFA6
:102E6000FFF7FEBFFFF7FEBFFFF7FEBFFFF7FEBF96
:102E7000FFF7FEBFFFF7FEBFFFF7FEBFFFF7FEBF86
:102E8000FFF7FEBFFFF7FEBFFFF7FEBFFFF7FEBF76
:102E9000FFF7FEBFFFF7FEBFFFF7FEBFFFF7FEBF66
:102EA000FFF7FEBFFFF7FEBFFFF7FEBFFFF7FEBF56
:102EB000FFF7FEBFFFF7FEBFFFF7FEBFFFF7FEBF46
:102EC000FFF7FEBFFFF7FEBFFFF7FEBFFFF7FEBF36
:102ED000FFF7FEBFFFF7FEBFFFF7FEBFFFF7FEBF26
:102EE000FFF7FEBFFFF7FEBFFFF7FEBFFFF7FEBF16
:102EF000FFF7FEBFFFF7FEBFFFF7FEBFFFF7FEBF06
:102F0000FFF7FEBFFFF7FEBFFFF7FEBFFFF7FEBFF5
:102F1000100B00A24A040A0600020000004001054E
:102F20001003212900089F0412D504120001100388
:102F3000792A00083B04434F2A10610112A710129E
:102F40009F0412AF0412B704100D090243000201DE
:102F500000C0320904000001020B101E05240010FD
:102F600001052401000104240202052406000107D2
:102F700005820308001009040100020A4E1002072E
:102F80000501027B200107058107F2280044224049
:102F900007228107200100090744F2130444F207C5
:102FA000FF441007FD2C00081B2D00081F041223EE
:102FB000041003892B0008910412A504129904122D
:102FC000B90412D90412E5041212431006020200D9
:102FD00040830440577917020345000204030904A3
:0400000508002E21A0
:00000001FF
